:020000040800F2
:1000000000000220190300086503000865030008CA
:100010006503000865030008650300080000000090
:100020000000000000000000000000006503000860
:100030006503000800000000650300086503000870
:1000400065030008650300086503000865030008F0
:1000500065030008650300086503000865030008E0
:1000600065030008650300086503000865030008D0
:1000700065030008650300086503000865030008C0
:1000800065030008650300086503000865030008B0
:1000900065030008650300086503000865030008A0
:1000A0006503000865030008650300086503000890
:1000B0006503000865030008650300086503000880
:1000C0006503000865030008650300086503000870
:1000D0006503000865030008650300086503000860
:1000E0006503000865030008650300086503000850
:1000F0006503000865030008650300086503000840
:10010000650300086503000865030008650300082F
:100110006503000865030008E502000865030008A0
:10012000650300086503000865030008650300080F
:1001300065030008650300086503000865030008FF
:1001400065030008650300086503000865030008EF
:1001500065030008650300086503000865030008DF
:1001600065030008650300086503000865030008CF
:1001700065030008650300086503000865030008BF
:08018000650300086503000897
:1001880007B501A800F006F801A8642100F003F8FB
:1001980000200EBD7047704713B504460120014684
:1001A80000F0AAF9684600F094F9002101208DF8C2
:1001B80004108DF806108DF80500072303480093F6
:1001C800694600F043F920461CBD00BF000002400C
:1001D80038B501210F4800F085F9012105460D4881
:1001E80000F080F9012104460A4800F07BF9012D4E
:1001F80007D034B1012804D02DB1012C05D030B17D
:1002080038BD054838BD054838BD054838BD0548DE
:1002180038BD00BF0000024006000020000000209A
:10022800120000200C00002013B501210446042010
:1002380000F062F9684600F04CF901208DF80400DE
:1002480000228DF805003F2304488DF806206946F2
:10025800009300F0FBF820461CBD00BF00080240D8
:1002680010B51D480C46012100F044F91A48022136
:1002780000F040F91848042100F03CF9164808211C
:1002880000F038F91448102100F034F91248202100
:1002980000F030F9237813B10F48012117E0607896
:1002A80010B10D48022112E0A17811B10A480421C9
:1002B8000DE0E27812B10848082108E0237913B16B
:1002C8000548102103E0607928B103482021BDE8E2
:1002D800104000F00DB910BD0008024007B50B48EA
:1002E800012100F015F980B10121084800F01BF93F
:1002F8006846FFF799FF01A8FFF74EFF01A8FFF72F
:1003080067FF01466846FFF7ABFF0EBD00100040CF
:10031800002100F004B80C4B5B58435004310B48E3
:100328000B4B42189A42FFF4F6AF0A4A00F003B8A2
:10033800002342F8043B084B9A42FFF4F9AF00F05F
:100348000FF8FFF71DFF7047340500080000002074
:10035800180000201800002018000020FFF7FEBF3A
:10036800344B186840F001021A6000229A6019683C
:1003780021F0847C30492CF480301860596018686A
:1003880082B020F480211960DA6000920192186826
:1003980040F480321A60274B1A6802F40031019148
:1003A8000098421C0092019919B90098B0F5A06F05
:1003B800F1D11A6812F4003118BF01210191019B93
:1003C800012B30D11B4B1A6C42F080501B4A186429
:1003D800116841F48040106099689960986840F409
:1003E80000429A609968164A41F4A05098605A6091
:1003F800196841F0807018600E4B19688A01FBD5A6
:10040800104A40F205611160986820F00301996074
:100418009A6842F0020098600648836803F00C0C62
:10042800BCF1080FF8D1084A4FF00061916002B0A2
:10043800704700BF003802401030002400700040B0
:1004480019544007003C024000ED00E02DE9F0415E
:1004580000230F681A460124944004EA0705A542C0
:1004680031D1032406689C40E443264006600E7997
:10047800D0F800C006FA03F8013EF6B248EA0C0CC0
:10048800012EC0F800C016D8866891F805C026402D
:10049800866086680CFA03FC4CEA060686604668A5
:1004A80026EA05068D794660466895401FFA85FC60
:1004B8004CEA06054560C5682540C560CC79C56825
:1004C8009C402C43C46001320233102AC3D1BDE8DA
:1004D800F08100234FF6FF7101600371437183714E
:1004E800C3717047036919420CBF0020012070478F
:1004F8000183704741837047044B1A6B09B110435D
:1005080001E022EA00001863704700BF003802408B
:10051800038A828911EA030092B203D011420CBF08
:0C052800002001207047C9430182704789
:1005340001000000000101000001000000010100B1
:080544000000000001000001AD
:0400000508000319D3
:00000001FF
